:020000040C00EE
:100000000088FE1F010200089902000899020008FA
:1000100099020008990200089902000800000000F7
:10002000000000000000000000000000990200082D
:10003000990200080000000099020008F514000869
:100040009902000899020008990200089902000824
:100050009902000899020008990200089902000814
:1000600099020008000000000000000000000000ED
:100070009902000800000000990200089902000897
:1000800099020008990200089902000899020008E4
:1000900099020008990200089902000899020008D4
:1000A00099020008990200089902000899020008C4
:1000B00099020008990200089902000899020008B4
:1000C00099020008990200089902000899020008A4
:1000D0009902000899020008990200089902000894
:1000E0009902000899020008990200089902000884
:1000F0009902000899020008990200089902000874
:100100009902000899020008990200089902000863
:100110009902000899020008990200089902000853
:100120009902000899020008990200089902000843
:100130009902000899020008990200089902000833
:100140009902000899020008990200089902000823
:100150009902000899020008990200089902000813
:10016000000000000000000000000000000000008F
:1001700099020008990200089902000899020008F3
:1001800099020008990200089902000899020008E3
:1001900099020008990200089902000899020008D3
:1001A00099020008990200089902000899020008C3
:1001B00099020008990200089902000899020008B3
:1001C00099020008990200089902000899020008A3
:1001D0009902000899020008990200080000000036
:1001E0009902000899020008990200089902000883
:1001F00099020008000000009902000800000000B9
:10020000DFF874D01D4880471D4C1E4DAC4209DA02
:1002100021686268A368043BA2BFC858D050FAE7BF
:100220000C34F3E7184B194CA34208DA19685A68E2
:100230000020043AA4BF8850FBE70833F4E71448D1
:100240008047144880470000D420000C0088FE1F1F
:1002500044000000D420000C0088FE1F00000000B5
:100260004488FE1F3801000000000020000000004C
:1002700000000020000000000088FE1F9D02000812
:1002800048020008600200086002000878020008C6
:10029000F91F00086D1F0008FEE7000098B500AFC9
:1002A000054A4FF0005314460FCB84E80F0001F0CD
:1002B000CBFC01F033FD98BDC4FF032080B584B0B2
:1002C00000AF2F4BDB6803F48033002B3ED02D4B67
:1002D000DB6803F00103002B02D02B4BFB6002E034
:1002E00001F012FDF860274B1B6803F00403002B9C
:1002F00020D0244B9B6803F070631B0E0133BB605E
:10030000204B9B6803F4FE431B0A01337B601D4BAB
:100310009B6803F4FE031B0C01333B60BB683A6827
:1003200002FB03F3FA68B2FBF3F37A6802FB03F310
:10033000FB600DE0134B9B6803F07F0301333B60D0
:10034000FA683B68B2FBF3F3FB6001E00E4BFB6025
:100350000B4BDB68DBB20133FA68B2FBF3F3FB60F3
:10036000074B1B6903F001030133FA68B2FBF3F397
:10037000FB60064AFB6813601037BD4680BD00BFB6
:10038000004600501047005000366E01C0FF0320A9
:1003900080B485B000AFF8600B467A60FB72FB7AE0
:1003A0009B08DBB21846FB7A9B08DBB21A46FB6857
:1003B000043253F82220FB7A03F00303DB001946D2
:1003C000F8238B40DB4302EA0301FB68021D43F87C
:1003D0002210FB685A6FFB7A5B00194603238B409F
:1003E000DB431A40FB685A67FB683A4A934203D0E2
:1003F000FB68394A93420AD1FB681A6EFB7A0121E5
:1004000001FA03F3DB431A40FB681A6642E07B689B
:100410001B78DBB25BB2002B3CDA7B685A68FB7A54
:100420009A40FB685A60FB7ADB08DBB21846FB7A1D
:10043000DB08DBB21A46FB68103253F82220FB7A45
:1004400003F007039B00194607238B40DB4302EAB6
:100450000301FB6800F1100243F82210FB7ADB086D
:10046000DBB21846FB7ADB08DBB21A46FB681032B7
:1004700053F822207B681B7A1946FB7A03F00703A6
:100480009B0001FA03F342EA0301FB6800F110024A
:1004900043F82210FB7A9B08DBB21846FB7A9B08D4
:1004A000DBB21A46FB68043253F822207B681B78C3
:1004B0001946FB7A03F00303DB0001FA03F342EA77
:1004C0000301FB68021D43F822101437BD465DF896
:1004D000047B7047008E0248008F024880B400AF52
:1004E000034BD3F8C4301846BD465DF8047B704713
:1004F0000040005080B584B000AF7860FFF7DEFEAA
:100500000B4B1B680B4AA2FB03239A0C7B6802FB74
:1005100003F37B600023FB6003E000BFFB68013353
:10052000FB60FA687B689A42F7D31037BD4680BDFE
:10053000C0FF032083DE1B4380B400AF034B5B6826
:100540001846BD465DF8047B704700BF74400050FC
:1005500080B483B000AF7860034A7B68D3600C3707
:10056000BD465DF8047B704774400050B0B584B060
:1005700002AF7860002000F091F800F06FFA7B681D
:10058000DB79002B0AD000F0A7FA00BF00F092FA46
:10059000034683F00103DBB2002BF7D17B685B7A63
:1005A000184600F0F5F800BFFFF798FF0346002B50
:1005B000FAD17B681B7A184600F02AFA7B681B7C0C
:1005C000184600F003F97B685B7C184600F026F9BA
:1005D0007B689B7C184600F00DF97B68DB7C184635
:1005E00000F030F97B689B79002B0AD000F0ACFA60
:1005F00000BF00F0D1FA034683F00103DBB2002B09
:10060000F7D17B68DB78002B09D17B689B7983F07D
:100610000103DBB2002B17D000F0E2FA14E000F087
:10062000CFFA7B6899887B68DA787B685B781D46AF
:100630007B681B781C467B689B78009308461146B4
:100640002A46234600F0DCFA7B68DB68B3F5803F7E
:1006500003D14FF4803000F021F8FFF72FFE083768
:10066000BD46B0BD80B485B000AF78607B681B0F1D
:10067000FB607B6823F07043BB60FA6813465B0045
:1006800013449B001A46044B1344BA681A6014378B
:10069000BD465DF8047B70471444005080B483B0BD
:1006A00000AF78600649064BDB6823F480327B6834
:1006B0001343CB600C37BD465DF8047B704700BF29
:1006C0000046005080B483B000AF78600649064B06
:1006D0009B6923F480327B6813438B610C37BD46E2
:1006E0005DF8047B704700BF0046005080B483B0C3
:1006F00000AF78600649064B5B6A23F440327B68A2
:1007000013434B620C37BD465DF8047B704700BF56
:100710000046005080B483B000AF0346FB80FB88E6
:10072000002B08D10A4A0A4BDB6823F4807323F0BC
:100730000103D36007E0064A054BDB6843F480738E
:1007400043F00103D3600C37BD465DF8047B70476E
:100750001047005080B483B000AF0346FB7100BF68
:10076000094BD3F8C43003F00803002BF8D1074934
:10077000064BDB6823F04002FB791343CB600C3758
:10078000BD465DF8047B70470040005000430050B8
:1007900080B483B000AF0346FB7100BF094BD3F8B0
:1007A000C43003F00803002BF8D10749064BDB687F
:1007B00023F08002FB791343CB600C37BD465DF814
:1007C000047B7047004000500043005080B483B069
:1007D00000AF78600649064BDB6823F0FF027B68B8
:1007E000013B1343CB600C37BD465DF8047B70477B
:1007F0000046005080B483B000AF78600649064BD5
:100800001B6A23F001027B68013B13430B620C3728
:10081000BD465DF8047B70470046005080B483B04D
:1008200000AF78600649064B1B6923F001027B6824
:10083000013B13430B610C37BD465DF8047B7047E9
:100840000046005080B483B000AF78600649064B84
:100850005B6923F001027B68013B13434B610C375A
:10086000BD465DF8047B70470046005080B483B0FD
:1008700000AF78600649064B9B6923F007027B684E
:10088000013B13438B610C37BD465DF8047B704719
:100890000046005080B483B000AF78600649064B34
:1008A000DB6923F03F027B68013B1343CB610C37CC
:1008B000BD465DF8047B70470046005080B483B0AD
:1008C00000AF78600649064B5B6A23F0FF027B6845
:1008D000013B13434B620C37BD465DF8047B704708
:1008E0000046005080B483B000AF0346FB71044A59
:1008F000FB7953600C37BD465DF8047B704700BF41
:100900000046005080B485B000AF78607B681B0F54
:10091000FB607B6823F07043BB60FA6813465B00A2
:1009200013449B001A46044B1344BA681A601437E8
:10093000BD465DF8047B70474846005080B400AF68
:10094000054A054B5B6923F4803323F002035361AE
:10095000BD465DF8047B70471047005080B483B0FB
:1009600000AF78603960284A274B5B6943F0010388
:10097000536100BF244B1B6903F00103002BF9D026
:10098000214A214B5B6943F0100353611E493B68C8
:10099000013B1A027B68013B1B0613434B611A4A59
:1009A000194B5B6943F040035361174A164B5B696F
:1009B00023F010035361144A134B5B6943F4802303
:1009C000536100BF104B1B6903F00403002BF9D0E7
:1009D0000D4A0D4B5B6923F00103536100BF0A4BC5
:1009E0001B6903F00103002BF9D1074A064B5B6931
:1009F00023F040035361054B0822DA600C37BD46F3
:100A00005DF8047B704700BF104700506041005004
:100A100080B582B000AF0346FB710F4A0E4B5B6896
:100A200043F480135360FB79012B0ED10A4A0A4B21
:100A30005B6823F4801353606420FFF75BFD064A74
:100A4000054B5B6843F4002353606420FFF752FDBD
:100A50000837BD4680BD00BF1047005080B400AFCE
:100A6000124B1B6803F00103002B09D10F4B01222D
:100A70005A6000BF0D4B1B6803F00103002BF9D037
:100A80000B4B1B6803F40073002B0AD0084B4FF488
:100A900000729A6000BF064B1B6803F40073002BC2
:100AA000F9D1BD465DF8047B704700BF004200509D
:100AB0000044005080B400AF064B1B6803F00803ED
:100AC000002B0CBF01230023DBB21846BD465DF8A6
:100AD000047B70470043005080B500AF4FF4000026
:100AE000FFF736FD174A174BDB6923F03003D3615C
:100AF00000BFFFF721FD034603F40003002BF8D0ED
:100B00004FF40030FFF724FD0E4B08225A6000BF5F
:100B1000FFF712FD034603F40033002BF8D04FF427
:100B20000020FFF715FD074A064BDB6843F008037A
:100B3000D36000BFFFF700FD034603F40023002B42
:100B4000F8D080BD00430050B0B500AF0F4A0F4B46
:100B50005B6823F4803353600D4D0D4B5B6823F4C9
:100B6000702424F0300401F0CFF80246094BA3FBB7
:100B700002231B0D013B1B0423436B60034A034B01
:100B80005B6823F400335360B0BD00BF10470050D2
:100B9000004700506BCA5F6B80B400AF074B1B6807
:100BA00003F46073B3F5607F0CBF01230023DBB255
:100BB0001846BD465DF8047B704700BF10470050E3
:100BC00080B400AF054A054B5B6823F4803323F003
:100BD00002035360BD465DF8047B70471047005028
:100BE00080B400AF054A054B5B6843F4803343F0A3
:100BF00002035360BD465DF8047B70471047005008
:100C000080B586B000AFBA607B600346FB810B46BF
:100C10007B73FB891846FFF77DFD7B7B012B40F042
:100C20008B80FB89002B09D101F06EF80246544BF2
:100C3000A3FB02239B0C9B057B6102E04FF0C0638A
:100C40007B617B697A6802FB03F2BB68B2FBF3F35A
:100C50007B617B694B4AA2FB03231B099B0D3B6114
:100C6000494A494B5B6843F00103536000BF464B60
:100C70001B6803F00103002BF9D0434A424B5B6829
:100C800043F01003536040493F4B9A683F4B134079
:100C90007A68013A12021A433B69013B1B041A436A
:100CA000BB68013B1B0613438B60374A364B5B68BE
:100CB00043F040035360344A334B5B6823F0100326
:100CC0005360314A304B5B6843F48023536000BF6C
:100CD0002D4B1B6803F00403002BF9D02A4A2A4B42
:100CE0005B6823F00103536000BF274B1B6803F0D0
:100CF0000103002BF9D17B69254AA2FB03235B0981
:100D00009B0D3B613A6A3B699A4202D2386900F016
:100D100045F87B695B081F4AA2FB03235B099B0D17
:100D20003B613A6A3B699A4202D2386900F036F870
:100D3000386A00F033F81CE01349134B9B6823F02A
:100D40007F023B6A013B13438B6000BF0E4B1B6865
:100D500003F01003002BF9D00B4A0B4B5B6843F0F8
:100D60000103536000BF084B1B6803F00103002B15
:100D7000F9D0094B0522DA601837BD4680BD00BFA7
:100D800083DE1B43ABAAAAAA10470050FF8080F065
:100D900089888888B7600BB66041005080B582B002
:100DA00000AF78600B490B4B9B6823F4FE027B6815
:100DB000013B1B0413438B6000BF064B1B6803F011
:100DC0002003002BF9D03220FFF794FB0837BD46F3
:100DD00080BD00BF1047005080B483B000AF786082
:100DE0007B684FF48072DA600C37BD465DF8047B97
:100DF000704700BF80B582B000AF78607B68104A52
:100E0000934203D10420FFF72DFC16E07B680D4AC6
:100E1000934203D10820FFF725FC0EE07B680A4AC5
:100E2000934203D11020FFF71DFC06E07B68074AC0
:100E3000934202D10648FFF715FC0837BD4680BD36
:100E400000C0004000000140004001400040004858
:100E50000100001080B582B000AF78607B68104A56
:100E6000934203D10420FFF74DFD16E07B680D4A45
:100E7000934203D10820FFF745FD0EE07B680A4A44
:100E8000934203D11020FFF73DFD06E07B68074A3F
:100E9000934202D10648FFF735FD0837BD4680BDB5
:100EA00000C00040000001400040014000400048F8
:100EB0000100001080B582B000AF78601020FFF70D
:100EC00011FD7868FFF7C6FF7868FFF793FF0837D2
:100ED000BD4680BD80B584B000AF78600B46FB7026
:100EE0007868FFF7E7FF7868FFF776FF7B681B6895
:100EF000FB60FB6823F44043FB60FB789B03FA68CC
:100F00001343FB607B68FA681A601037BD4680BDEA
:100F100080B483B000AF786039603B681A687B6842
:100F20005A613B685B79C3F34013DBB21A057B68F7
:100F30005A603B681B79C3F30303DBB21A467B6834
:100F40005A623B685B79C3F30303DBB21A467B68E2
:100F50001A623B685B79C3F30013DBB21A467B6805
:100F60009A613B681B79C3F30313DBB21A467B68B3
:100F7000DA620C37BD465DF8047B704780B485B0FB
:100F800000AF78600B46FB707B689B6AFB60FB6878
:100F900023F47063FB60FB781B02FA681343FB6069
:100FA0007B68FA689A62FA787B685A621437BD46A1
:100FB0005DF8047B704700BF80B487B000AF7860F5
:100FC0000B46FB701346BB70FB780B2B36D801A287
:100FD00052F823F005100008051000080F10000853
:100FE0000F1000083D1000083D1000083D100008DB
:100FF0003D100008191000082510000831100008E5
:101000003110000803233B6100237B611BE00C23AC
:101010003B6102237B6116E04FF440733B61082380
:101020007B6110E04FF440633B610A237B610AE07F
:101030004FF440533B610C237B6104E000233B6190
:1010400000237B6100BF3B69002B13D07B68D3F882
:10105000A830FB603B69DB43FA681340FB60BA7859
:101060007B6902FA03F3FA681343FB607B68FA6852
:10107000C3F8A8201C37BD465DF8047B704700BF4D
:1010800080B400AFBD465DF8047B704780B400AF0C
:10109000044BDB6803F4E0631B0A1846BD465DF8A9
:1010A000047B704700ED00E080B483B000AF0346DE
:1010B0003960FB7197F90730002B0ADB0D4997F96E
:1010C00007303A68D2B29200D2B20B4483F80023C0
:1010D0000AE00949FB7903F00F03043B3A68D2B2F6
:1010E0009200D2B20B441A760C37BD465DF8047BF1
:1010F000704700BF00E100E000ED00E080B489B07F
:1011000000AFF860B9607A60FB6803F00703FB6129
:10111000FB69C3F10703062B28BF0623BB61FB69EC
:101120000633062B02D9FB69013B00E000237B61FB
:10113000BB69012202FA03F35A1EBB681A407B699D
:101140009A407B69012101FA03F3591E7B680B4029
:10115000134318462437BD465DF8047B704700BF33
:1011600080B582B000AF78607B68013BB3F1807FCF
:1011700001D301230FE00A4A7B68013B53604FF023
:10118000FF303F21FFF790FF054B00229A60044B90
:1011900007221A60002318460837BD4680BD00BFED
:1011A00010E000E090B486B000AF78600023FB73DD
:1011B0006B497A681346DB0013449B000B441833D9
:1011C0001B68BB60674B1B68002B09D17A6813460C
:1011D000DB0013449B00624A1344624A1360BBE085
:1011E000604B1B687B61BB683B61ABE07B699B69C3
:1011F0001A463B699B1A3B613B69002B7ADC7B6991
:101200005B68002B26D07B6959687A681346DB003F
:1012100013449B00524A13440B607B695968504841
:101220007A681346DB0013449B00034459604C4921
:101230007A681346DB0013449B000B447A691A60FA
:101240007A681346DB0013449B00454A1A447B69C5
:101250005A601CE0434B196841487A681346DB002A
:1012600013449B00034419603E4B19687A68134687
:10127000DB0013449B003A4A13444B607A681346E0
:10128000DB0013449B00364A1344364A136034494A
:101290007A681346DB0013449B000B441B689A6971
:1012A0003B69D1182E487A681346DB0013449B0033
:1012B0000344183319602A497A681346DB00134443
:1012C0009B000B44196826487A681346DB001344D8
:1012D0009B0003441B689869214C7A681346DB0025
:1012E00013449B00234418331B68C31A8B610123EA
:1012F000FB7324E03B69002B21DD7B691B68002B1D
:101300001DD117497A681346DB0013449B000B4438
:101310007A695A607A681346DB0013449B00104ACE
:101320001A447B691A6039690D487A681346DB00F4
:1013300013449B000344183319600123FB737B693A
:101340001B687B617B69002B06D0FB7B83F001036C
:10135000DBB2002B7FF44AAF1837BD4690BC704714
:101360005888FE1F4488FE1F80B485B000AF7860A7
:101370007A681346DB0013449B00294A1344FB6040
:10138000FB685B68002B07D1FB681B68002B03D14F
:10139000244B00221A603DE0FB685B68002B14D1EF
:1013A000FB681B681F4A13601E4B1B6800225A60B3
:1013B0001C4B1B681B4A12689169FA6892690A44BF
:1013C0009A61FB6800221A6024E0FB681B68002B0E
:1013D00007D1FB685B6800221A60FB6800225A6034
:1013E00018E0FB685B68FA6812681A60FB681B68A3
:1013F000FA6852685A60FB681B68FA68126891695B
:10140000FA6892690A449A61FB6800221A60FB68D4
:1014100000225A601437BD465DF8047B704700BF58
:101420005888FE1F4488FE1F80B582B000AF2F4B46
:101430001B687B6050E07B6893F82030002B13D052
:101440007B685B691846FFF78FFF7B6800225A7341
:101450007B685B691A4601239340DA43244B1B687F
:101460001340234A136034E07B681B7B002B12D1AE
:101470007B685B7B012B2CD17B685B691846FFF78F
:1014800073FF7B6802225A737B689B687A681269D3
:10149000104698471DE07B681B7B012B18D17B68A9
:1014A0005B7B012B15D17B685B691846FFF75CFFFE
:1014B0007B68DA697B689A617B685B691846FFF72D
:1014C00071FE7B689B687A6812691046984700E055
:1014D00009E0064B1B687B607B68002B03D07B68B0
:1014E0009B69002BA7D00837BD4680BD4488FE1FEE
:1014F0004888FE1F80B582B000AF0E4B1B687B6032
:101500000D4B1B6801330C4A13607B68002B0ED017
:101510007B689B69012B05D97B689B695A1E7B6898
:101520009A6104E07B6800229A61FFF77DFF08372B
:10153000BD4680BD4488FE1F4C88FE1F80B584B028
:1015400000AF78600023FB737B681B7883F0010396
:10155000DBB2002B20D0134B00221A601248FFF799
:10156000FFFD0346FB73FB7B012B15D0FFF78EFDC0
:10157000034618463F210022FFF7C0FD03464FF007
:10158000FF301946FFF790FD084B00221A607B6878
:1015900001221A700023FB73FB7B18461037BD46EF
:1015A00080BD00BF4488FE1F803202004888FE1FB5
:1015B00080B489B000AFF8607A603B600B46FB7284
:1015C0000023FB610023BB6100237B61FB68B3F553
:1015D0007A7F02D20023FB617BE00023BB6175E0D0
:1015E000BB6901229A403E4B1B681340002B6AD115
:1015F000BB6901229A403A4B1B681343384A136077
:101600003849BA691346DB0013449B000B4410337E
:10161000BA695A603349BA691346DB0013449B0028
:101620000B440833FA7A1A712E49BA691346DB0063
:1016300013449B000B44083302225A71FB682A4A68
:10164000A2FB03239B097B617B69591C2548BA696E
:101650001346DB0013449B000344183319602149EF
:10166000BA691346DB0013449B000B4418337A69B4
:101670005A601C49BA691346DB0013449B000B44B3
:1016800008337A681A601749BA691346DB001344B5
:101690009B000B4410333A681A601249BA6913462A
:1016A000DB0013449B000B4400225A600D49BA69C9
:1016B0001346DB0013449B000B4400221A60BB69F5
:1016C0000133FB6105E0BB690133BB61BB69072BDB
:1016D00086D9FB6918462437BD465DF8047B704700
:1016E0004888FE1F5888FE1FD34D621080B584B015
:1016F00000AF78600123FB737B685A1E1A491346BA
:10170000DB0013449B000B4408335B79022B26D18A
:101710007B685A1E7B68591E13480B46DB000B443E
:101720009B00034418335B68591C0F481346DB00C9
:1017300013449B000344183319607B685A1E0A49FE
:101740001346DB0013449B000B44083301225A71FB
:101750007B68013B1846FFF725FD0023FB73FB7BED
:1017600018461037BD4680BD5888FE1F80B483B030
:1017700000AF78600B46FB70FB7801229A407B68D3
:10178000DA600C37BD465DF8047B704780B483B0E7
:1017900000AF78607B680122DA600C37BD465DF8E7
:1017A000047B704780B483B000AF78600B467B80C9
:1017B0007A887B685A630C37BD465DF8047B7047B6
:1017C00080B483B000AF78600B467B807A887B68FA
:1017D000DA630C37BD465DF8047B704780B483B094
:1017E00000AF786039607B683A681A610C37BD4693
:1017F0005DF8047B704700BF80B483B000AF7860B1
:101800000B46FB707B68D3F8A420FB78012101FA1A
:1018100003F31A437B68C3F8A4200C37BD465DF878
:10182000047B704780B584B000AF78600123FB7300
:101830007B6893F82930022B4DD17B681B681846D2
:1018400000F0BEF90346FB73FB7B002B3FD17B68A6
:101850009A687B68DB6810461946FFF759FB7B687E
:101860009A687B68DB699BB210461946FFF79AFFBE
:101870007B689A687B689B699BB210461946FFF7A4
:101880009FFF7B685A687B685B6A10461946FFF7C2
:10189000A5FF786800F024F87B6819697B6893F8E5
:1018A0002C207B685B69084611461A46FEF770FDDE
:1018B0007B68002283F829207B6893F82F30002B67
:1018C00002D0786800F02EF90023FB7303E07B68F8
:1018D000022283F82920FB7B18461037BD4680BDC5
:1018E00080B582B000AF78607B6893F83030002B11
:1018F0000FD07B689B6818460021FFF77DFF7B684F
:101900009A687B6893F82A30104600211A46FFF740
:1019100053FB7B6893F83130002B0FD07B689B68BA
:1019200018460221FFF768FF7B689A687B6893F886
:101930002B30104602211A46FFF73EFB0837BD4602
:1019400080BD00BF80B582B000AF78607B6893F83F
:101950002930002B04D07B6893F82930042B11D157
:101960007B685A687B6893F82E3010461946FFF75B
:10197000FDFE7B689B681846FFF708FF7B68032223
:1019800083F829200837BD4680BD00BF80B586B0EA
:1019900000AF786039600123FB757B6893F82930CC
:1019A000022B2CD03B6842F21072934227D87B68FE
:1019B000DB6901333B613B68C3F51C5310333A6963
:1019C00002FB03F3104AA2FB03235B0BFB607B6863
:1019D000FA689A617B683A681A627B689A68FB6861
:1019E0009BB210461946FFF7EBFE7B685A687B688E
:1019F0005B6A10461946FFF7F1FE0023FB75FB7D7D
:101A000018461837BD4680BD5917B7D180B586B086
:101A100000AF786039607B6893F82930FB7500234C
:101A2000BB7500233B61FB7D022B5BD03B68002B29
:101A300058D00023FB757B681B681B68FB600FE0B8
:101A4000FA683B68B2FBF3F2BB7D22FA03F33B6119
:101A50003B69B3F5803F00D205E0BB7D0133BB7528
:101A6000BB7D0F2BECD9BB7D0F2B02D83B69002B24
:101A700002D10123FB7537E07B681B6AC3F51C5359
:101A800010333A6902FB03F31A4AA2FB03235B0BF0
:101A9000BB607B689A68BB7D10461946FFF76EFAFB
:101AA0003B69013B3B617B689A683B699BB210468E
:101AB0001946FFF777FE7B689A68BB689BB21046B1
:101AC0001946FFF77DFE7B685A687B685B6A1046A3
:101AD0001946FFF783FE7B68BA689A617B683A69AA
:101AE000DA6101E00123FB75FB7D18461837BD461E
:101AF00080BD00BF5917B7D180B584B000AF786002
:101B00000123FB737B6893F82830002B04D178689D
:101B1000FFF788FE0346FB73FB7B18461037BD4674
:101B200080BD00BF80B582B000AF78607B6893F85D
:101B30002830002B02D17868FFF704FF0837BD4634
:101B400080BD00BF80B584B000AF786039600123EC
:101B5000FB737B6893F82830002B05D178683968CF
:101B6000FFF714FF0346FB73FB7B18461037BD4697
:101B700080BD00BF80B584B000AF786039600123BC
:101B8000FB737B6893F82830002B05D1786839689F
:101B9000FFF73CFF0346FB73FB7B18461037BD463F
:101BA00080BD00BF80B483B000AF78607B684FF425
:101BB0008072DA600C37BD465DF8047B704700BF69
:101BC00080B582B000AF78607B685B7B83F00103F7
:101BD000DBB2002B0FD07B689A687B681B7B1046BA
:101BE0001946FFF777F97B689B681846FFF7DAFF1D
:101BF0007B6801225A73002318460837BD4680BD12
:101C000080B485B000AF78607B6803F00703FB60A9
:101C10000C4BDB68BB60BA684FF6FF031340BB6038
:101C2000FB681A02BB68134343F0BF6343F40033FD
:101C3000BB60044ABB68D3601437BD465DF8047BC3
:101C4000704700BF00ED00E080B582B000AF01201A
:101C5000FFF7D6FF72B6214B214A9A60BFF34F8F30
:101C600062B61E4A1D4BD3F8883043F47003C2F8A5
:101C700088301C4B03F5805314331B687B607B68F2
:101C800023F00F037B607B6843F004037B60154BFC
:101C900003F5805314337A681A60104A0F4B5B695E
:101CA00023F0100353610D4A0C4B5B6923F00803CA
:101CB00053610A4A094B5B6A23F480335362074A33
:101CC000064B5B6A23F400335362044A034B5B6A9E
:101CD00023F4802353620837BD4680BD00ED00E049
:101CE000000000080010005880B485B000AF786094
:101CF0000023FB737B6801221A70FB7B18461437A4
:101D0000BD465DF8047B704780B400AF024B1846B7
:101D1000BD465DF8047B7047001BB700B0B586B0C8
:101D200000AF134B3C1D1D460FCD0FC42B68236025
:101D30003B1D1846FEF71AFC0020FEF70BFD0020A5
:101D4000FEF7C0FC0420FEF791FDFEF7F7FD012031
:101D50002021FEF703FE0020FEF7C8FC0120FEF75D
:101D6000ADFD0120FEF796FD1837BD46B0BD00BFA2
:101D70006820000880B582B000AF0023FB710D48D9
:101D8000FFF7B2FF0346FB71FB79002B04D10A4831
:101D9000FFF7B2FE0346FB71FB79002B04D1074825
:101DA000FFF7CCFB0346FB71FB7918460837BD46AD
:101DB00080BD00BF5488FE1F0088FE1F5088FE1F94
:101DC00080B400AF064B1B68002B04DD044B1B687E
:101DD000013B034A1360BD465DF8047B704700BFBA
:101DE0007889FE1F80B483B000AF7860064A7B68B4
:101DF000136000BF044B1B68002BFBDC0C37BD4697
:101E00005DF8047B704700BF7889FE1F80B582B003
:101E100000AF78607B68DA0F13445B100548194601
:101E2000FFF790FE7B6803481946FFF7A3FE0837CB
:101E3000BD4680BD0088FE1FB0B590B000AF034620
:101E4000FB71494B07F10C041D460FCD0FC40FCD9C
:101E50000FC40FCD0FC42B682360FB79433B242BA9
:101E60007ED801A252F823F0071F00081B1F0008AC
:101E7000611F0008391F00084D1F0008611F00087E
:101E8000611F0008611F0008611F0008611F000832
:101E9000611F0008611F0008611F0008611F000822
:101EA000611F0008611F0008611F0008611F000812
:101EB000611F0008611F0008611F0008611F000802
:101EC000611F0008611F0008611F0008611F0008F2
:101ED000611F0008611F0008611F0008611F0008E2
:101EE000611F0008571F0008FD1E0008111F000891
:101EF000251F00082F1F0008431F0008FB68184615
:101F0000FFF784FF2CE03B691846FFF77FFF27E0CF
:101F10007B691846FFF77AFF22E0BB691846FFF796
:101F200075FF1DE0FB691846FFF770FF18E03B6A7C
:101F30001846FFF76BFF13E07B6A1846FFF766FF52
:101F40000EE0BB6A1846FFF761FF09E0FB6A18461E
:101F5000FFF75CFF04E03B6B1846FFF757FF00BF3D
:101F60004037BD46B0BD00BF7C200008B0B58CB086
:101F700000AFFFF7FFFE034687F82B3097F82B30B2
:101F8000002B00D0FEE74FF47A700121174A00239E
:101F9000FFF70EFB03467B627B6A1846FFF7A6FB42
:101FA0001348FFF7BFFD134B3C461D460FCD0FC432
:101FB0000FCD0FC42B6823600023FB620DE03A466F
:101FC000FB6A13441B781846FFF736FF4FF4FA708C
:101FD000FFF708FFFB6A0133FB62FC6A3B461846C9
:101FE00000F030F803469C42E9D3DCE7C11D00084D
:101FF0000088FE1FB020000870B50E4B0E4CE41A8E
:10200000A41000251E46A54204D056F82530984756
:102010000135F8E7FFF734F8084C094BE41AA4102F
:1020200000251E46A54204D056F8253098470135B4
:10203000F8E770BD4488FE1F4488FE1F4488FE1FD9
:102040004488FE1F034613F8012B002AFBD1181AFF
:1020500001387047000000000100000098000000F7
:102060000000010004000000300201010000010036
:102070000000000000000100020101010501000054
:102080001501000025010000370100004901000092
:102090005D01000071010000880100009F01000047
:1020A000B8010000D2010000ED0100000B020000A9
:1020B0006544654465626463616365616265476246
:1020C0006365654465446562646361636561626517
:0420D00063626100E6
:1020D4003488FE1F00C0004000C4004054200008A3
:1020E400008102485C200008C05D00007FBB000046
:1020F40088130000005000000002000000000300EC
:1021040000000000004495080100000000C00040E9
:0421140000000000C7
:0400000508000201EC
:00000001FF
